:100000000C9473000C949F000C949F000C949F0020
:100010000C949F000C949F000C949F000C949F00E4
:100020000C949F000C949F000C949F000C949F00D4
:100030000C949F000C949F000C949F000C949F00C4
:100040000C949F000C949F000C949F000C949F00B4
:100050000C949F000C949F000C949F000C949201B0
:100060000C949F000C943C020C941C030C949F0075
:100070000C949F000C949F000C949F000C949F0084
:100080000C949F000C949F000C949F000C949F0074
:100090000C9474020C945B030C949F000C949F00CE
:1000A0000C949F000C949F000C949F000C949F0054
:1000B0000C949F000C949F000C949F000C949F0044
:1000C0000C949F000C949F000C949F000C94AC0225
:1000D0000C949A030C949F000C94E4020C94D903A2
:1000E0000C949F00A90511241FBECFEFD1E2DEBF03
:1000F000CDBF00E00CBF12E0A0E0B2E0E8E5FEE01A
:1001000000E00BBF02C007900D92A031B107D9F7F4
:1001100014E0A0E1B2E001C01D92A53BB107E1F7F8
:1001200010E0C6EED0E004C02297FE010E94260730
:10013000C43ED107C9F70E94A1000C94F1060C94AB
:1001400000000F931F930E94DA0109E314E0C80135
:1001500040E855E260E070E00E94180481E090E021
:100160006BE00E94F40682E090E064E40E94F406F2
:1001700083E090E061E40E94F40684E090E064E4AF
:100180000E94F40685E090E06AE00E94F40686E0B2
:1001900090E066E50E94F40687E090E060E50E944A
:1001A000F40688E090E060E50E94F40689E090E0C3
:1001B00069E00E94F4068AE090E063E50E94F4069C
:1001C0008BE090E065E50E94F4068CE090E060E54D
:1001D0000E94F4068DE090E068E00E94F4068EE054
:1001E00090E067E50E94F4068FE090E06FE40E94E3
:1001F000F40680E190E067E50E94F40681E190E07A
:1002000067E00E94F40682E190E067E40E94F40651
:1002100083E190E067E40E94F40684E190E067E403
:100220000E94F40685E190E066E00E94F40686E113
:1002300090E065E50E94F40687E190E060E50E94A9
:10024000F40688E190E06CE40E94F40689E190E015
:1002500065E00E94F4068AE190E06FE40E94F406F3
:100260008BE190E067E50E94F4068CE190E06DE49C
:100270000E94F4068DE190E064E00E94F4068EE1B5
:1002800090E067E40E94F4068FE190E067E40E944A
:10029000F40680E290E063E50E94F40681E290E0DB
:1002A00063E00E94F40682E290E060E50E94F406BA
:1002B00083E290E06FE40E94F40684E290E067E558
:1002C0000E94F40685E290E062E00E94F40686E275
:1002D00090E067E50E94F40687E290E067E50E94FF
:1002E000F40688E290E067E40E94F40689E290E078
:1002F00061E00E94F4068AE290E060E50E94F40664
:100300008BE290E06FE40E94F4068CE290E060E5FE
:100310000E94F406C8010E949E0480E090E01F91B4
:100320000F9108951F920F920FB60F9211242F93E1
:100330003F938F939F93AF93BF93809114029091BB
:100340001502A0911602B091170230911802019681
:10035000A11DB11D232F2D5F2D3720F02D570196A4
:10036000A11DB11D209318028093140290931502D1
:10037000A0931602B093170280911002909111027F
:10038000A0911202B09113020196A11DB11D80939C
:10039000100290931102A0931202B0931302BF9126
:1003A000AF919F918F913F912F910F900FBE0F9022
:1003B0001F901895789484B5826084BD84B581605F
:1003C00084BD85B5826085BD85B5816085BDEEE65D
:1003D000F0E0808181608083E1E8F0E0108280813C
:1003E00082608083808181608083E0E8F0E08081AA
:1003F00081608083E1EBF0E0808184608083E0EBCA
:10040000F0E0808181608083E1E9F0E080818260BA
:100410008083808181608083E0E9F0E08081816079
:100420008083E1EAF0E08081826080838081816066
:100430008083E0EAF0E0808181608083E1E2F1E0A6
:10044000808182608083808181608083E0E2F1E04E
:10045000808181608083EAE7F0E08081846080832E
:1004600080818260808380818160808380818068D8
:1004700080831092C10008951F920F920FB60F92C1
:100480000BB60F9211242F933F934F938F939F930B
:10049000EF93FF934091C6002091590230915A0288
:1004A0002F5F3F4F2F73307080915B0290915C0201
:1004B0002817390759F0E0915902F0915A02E75E86
:1004C000FD4F408330935A0220935902FF91EF91E0
:1004D0009F918F914F913F912F910F900BBE0F9055
:1004E0000FBE0F901F9018951F920F920FB60F928C
:1004F0000BB60F9211242F933F934F938F939F939B
:10050000EF93FF934091CE002091E1023091E202FF
:100510002F5F3F4F2F7330708091E3029091E40280
:100520002817390759F0E091E102F091E202EF5506
:10053000FD4F40833093E2022093E102FF91EF915F
:100540009F918F914F913F912F910F900BBE0F90E4
:100550000FBE0F901F9018951F920F920FB60F921B
:100560000BB60F9211242F933F934F938F939F932A
:10057000EF93FF934091D6002091690330916A0375
:100580002F5F3F4F2F73307080916B0390916C03FE
:100590002817390759F0E0916903F0916A03E75D84
:1005A000FC4F408330936A0320936903FF91EF91DE
:1005B0009F918F914F913F912F910F900BBE0F9074
:1005C0000FBE0F901F9018951F920F920FB60F92AB
:1005D0000BB60F9211242F933F934F938F939F93BA
:1005E000EF93FF93409136012091F1033091F20394
:1005F0002F5F3F4F2F7330708091F3039091F4037E
:100600002817390759F0E091F103F091F203EF5404
:10061000FC4F40833093F2032093F103FF91EF915D
:100620009F918F914F913F912F910F900BBE0F9003
:100630000FBE0F901F9018951F920F920FB60F923A
:100640000BB60F9211242F933F938F939F93EF93A9
:10065000FF9320919D0230919E0280919F02909184
:10066000A0022817390731F48091C1008F7D809353
:10067000C10014C0E0919F02F091A002E35AFD4F27
:10068000208180919F029091A00201968F739070BB
:100690009093A00280939F022093C600FF91EF9158
:1006A0009F918F913F912F910F900BBE0F900FBE96
:1006B0000F901F9018951F920F920FB60F920BB6C6
:1006C0000F9211242F933F938F939F93EF93FF9358
:1006D00020912503309126038091270390912803D0
:1006E0002817390731F48091C9008F7D8093C900A4
:1006F00014C0E0912703F0912803EB51FD4F2081B6
:10070000809127039091280301968F7390709093A6
:100710002803809327032093CE00FF91EF919F91B0
:100720008F913F912F910F900BBE0F900FBE0F90A6
:100730001F9018951F920F920FB60F920BB60F9243
:1007400011242F933F938F939F93EF93FF932091C7
:10075000AD033091AE038091AF039091B0032817A1
:10076000390731F48091D1008F7D8093D10014C07E
:10077000E091AF03F091B003E359FC4F20818091E9
:10078000AF039091B00301968F7390709093B00374
:100790008093AF032093D600FF91EF919F918F91AB
:1007A0003F912F910F900BBE0F900FBE0F901F9097
:1007B00018951F920F920FB60F920BB60F9211243D
:1007C0002F933F938F939F93EF93FF932091350443
:1007D00030913604809137049091380428173907F6
:1007E00031F4809131018F7D8093310114C0E0910B
:1007F0003704F0913804EB50FC4F2081809137048E
:100800009091380401968F73907090933804809380
:10081000370420933601FF91EF919F918F913F9183
:100820002F910F900BBE0F900FBE0F901F90189539
:10083000AF92BF92DF92EF92FF920F931F93CF93ED
:10084000DF93EC017A018B01DD24403081EE580703
:1008500080E0680780E0780711F0DD24D39491E010
:10086000A92EB12CEC89FD89DD2069F0C5010E8C23
:1008700002C0880F991F0A94E2F7808360E079E054
:100880008DE390E005C0108260E874E88EE190E0AE
:10089000A80197010E94020721503040404050407B
:1008A000569547953795279580E12030380720F0F9
:1008B000DD2011F0DD24D6CFE889F9893083EA897B
:1008C000FB892083EE89FF89408121E030E0C90166
:1008D0000A8C02C0880F991F0A94E2F7482B4083C4
:1008E000EE89FF894081C9010B8C02C0880F991FD6
:1008F0000A94E2F7482B4083EE89FF894081C901C1
:100900000C8C02C0880F991F0A94E2F7482B408391
:10091000EE89FF8980810D8C02C0220F331F0A945B
:10092000E2F7209528232083DF91CF911F910F912B
:10093000FF90EF90DF90BF90AF900895CF93DF933B
:10094000DC011E968D919C911F97EC01C05CDF4FDE
:10095000FC01EE5BFF4F288139818081918128174E
:100960003907C9F75696ED91FC915797408121E0E0
:1009700030E0C9015A960C905A9702C0880F991F0F
:100980000A94E2F78095842380835696ED91FC913A
:1009900057974081C9015B960C905B9702C0880F06
:1009A000991F0A94E2F78095842380835696ED91EF
:1009B000FC9157974081C9015C960C905C9702C0EE
:1009C000880F991F0A94E2F78095842380835696B6
:1009D000ED91FC91579780815D960C905D9702C0D8
:1009E000220F331F0A94E2F72095282320831C96B8
:1009F000ED91FC911D97EE5BFF4F80819181929369
:100A00008293DF91CF910895DC011C96ED91FC91CA
:100A10001D97E05CFF4F2191319180819181281BCE
:100A2000390B2F733070C9010895DC011C96ED91CC
:100A3000FC911D97E05CFF4F20813181E054F04034
:100A4000DF01AE5BBF4F8D919C911197281739073D
:100A500019F42FEF3FEF07C08D919C91E80FF91F1C
:100A60008081282F30E0C9010895DC011C96ED91AA
:100A7000FC911D97E05CFF4F20813181E054F040F4
:100A8000DF01AE5BBF4F8D919C91119728173907FD
:100A900019F42FEF3FEF10C08D919C911197E80F43
:100AA000F91F20818D919C91119701968F73907001
:100AB00011969C938E9330E0C9010895FC018685C0
:100AC0009785DC01A05CBF4FFC01EE5BFF4F2D91D1
:100AD0003C9111978081918128173907C1F70895BA
:100AE000CF93DF93EC01EE85FF85E05CFF4F208123
:100AF0003181E054F0402F5F3F4F2F733070DF01A2
:100B0000AE5BBF4F8D919C91119728173907D1F398
:100B1000E05CFF4F80819181E054F040E80FF91FC5
:100B20006083EE85FF85E05CFF4F31832083EE8993
:100B3000FF89208181E090E00D8C02C0880F991F11
:100B40000A94E2F7282B208381E090E0DF91CF9197
:100B500008951F9310923C0410923B0428EE33E05A
:100B600040E050E020933D0430933E0440933F0426
:100B70005093400464E072E070933A046093390447
:100B800089E192E090934604809345048DE592E0DC
:100B9000909348048093470485EC90E090934A0436
:100BA0008093490484EC90E090934C0480934B0430
:100BB00080EC90E090934E0480934D0481EC90E0A3
:100BC0009093500480934F0486EC90E090935204ED
:100BD0008093510414E010935304B3E0B093540491
:100BE000A7E0A0935504F5E0F0935604E1E0E0930C
:100BF000570410925B0410925A0420935C043093C3
:100C00005D0440935E0450935F04709359046093B5
:100C1000580481EA92E0909365048093640485EE21
:100C200092E090936704809366048DEC90E090933B
:100C30006904809368048CEC90E090936B0480933B
:100C40006A0488EC90E090936D0480936C0489ECC6
:100C500090E090936F0480936E048EEC90E09093FC
:100C600071048093700410937204B0937304A09382
:100C70007404F0937504E093760410927A04109251
:100C8000790420937B0430937C0440937D0450933B
:100C90007E04709378046093770489E293E09093E4
:100CA0008404809383048DE693E09093860480937C
:100CB000850485ED90E0909388048093870484ED0B
:100CC00090E090938A048093890480ED90E0909363
:100CD0008C0480938B0481ED90E090938E0480933C
:100CE0008D0486ED90E09093900480938F04109390
:100CF0009104B0939204A0939304F0939404E0932E
:100D00009504109299041092980420939A043093B9
:100D10009B0440939C0450939D04709397046093AC
:100D2000960481EB93E09093A3048093A20485EF53
:100D300093E09093A5048093A40485E391E09093BD
:100D4000A7048093A60484E391E09093A904809380
:100D5000A80480E391E09093AB048093AA0481E31C
:100D600091E09093AD048093AC0486E391E090937E
:100D7000AF048093AE041093B004B093B104A09379
:100D8000B204F093B304E093B4041F910895CF929A
:100D9000DF92EF92FF920F931F93CF93DF937C012B
:100DA0006B018A01C0E0D0E00FC0D6016D916D01EA
:100DB000D701ED91FC910190F081E02DC7011995CB
:100DC000C80FD91F015010400115110571F7CE0150
:100DD000DF91CF911F910F91FF90EF90DF90CF9017
:100DE0000895F8940C942A07262FF999FECF1FBA7C
:100DF00092BD81BD20BD0FB6F894FA9AF99A0FBE44
:100E000001960895A1E21A2EAA1BBB1BFD010DC07D
:100E1000AA1FBB1FEE1FFF1FA217B307E407F507AA
:100E200020F0A21BB30BE40BF50B661F771F881F86
:100E3000991F1A9469F760957095809590959B011C
:100E4000AC01BD01CF010895EE0FFF1F0590F49195
:080E5000E02D1994F894FFCF86
:100E5800000000007005C7060405350515055E0588
:00000001FF
